:020000040800F2
:1000000098B10020450100087B0E0008710C000823
:10001000790E0008BD070008FF140008000000006A
:1000200000000000000000000000000013130008A2
:100030002509000800000000450F000815130008FE
:1000400001150008430F0008171300082F120008BD
:10005000ED09000899110008490900084D09000838
:100060004F0900085109000853090008CB07000890
:10007000CD070008CF070008D1070008D307000804
:10008000D5070008D7070008BB070008FB140008C5
:10009000FD140008BF070008C10700085509000843
:1000A000191300081F1300081D1300081B13000874
:1000B00021130008291300082B1300088F0C0008D7
:1000C0008D0C0008930C0008910C00080D1300081B
:1000D0000F130008C5130008C7130008C913000850
:1000E0004B0900082D120008F9140008331300080A
:1000F000391300083713000835130008B907000842
:10010000A90A0008811200082D1300081113000825
:10011000C1130008C31300082F130008311300088F
:10012000C3070008C5070008C7070008C90700087B
:10013000DFF80CD000F06EFA004800478DB40008DC
:1001400098B100200048004731010008004870477E
:1001500040DC0208A0F16101192900D8203870475D
:1001600010B5431A934209D28318881803E010F897
:10017000011D03F8011D521EF9D210BD40EA010312
:100180009B0703D009E008C9121F08C0042AFAD24D
:1001900003E011F8013B00F8013B521EF9D210BDFB
:1001A000D2B201E000F8012B491EFBD270470022B9
:1001B000F6E710B504460846114602462046FFF70A
:1001C000EFFF204610BD0146002000E0401C0A5C05
:1001D000002AFBD1704710B5002200E0521C835C5E
:1001E0008C5CA34201D1002BF8D1D8B2E1B2401A05
:1001F00010BD30B504460020034600E05B1C93426E
:1002000003D2E05CCD5C401BF8D030BD034611F852
:10021000012B00F8012B002AF9D11846704730B5A0
:100220000B46014600202022012409E021FA02F5B4
:100230009D4205D303FA02F5491B04FA02F528444E
:10024000151EA2F10102F1DC30BD2DE9F05F05467B
:10025000002092469B4688460646814640241DE083
:10026000284641464746224600F0F5F9B0EB0A0021
:1002700052465B4671EB0B0110D3104619462246DD
:1002800000F0DAF92D1A67EB01084F4622460120EB
:10029000002100F0D1F917EB00094E41201EA4F116
:1002A0000104DDDC484631462A464346BDE8F09F5E
:1002B0002DE9FE4F074681EA0300C00F0E4601906C
:1002C00021F0004123F00044B81AA14105D238467C
:1002D000314617461E460B46024623F000401043A7
:1002E00004D13846314603B0BDE8F08F350DC5F373
:1002F0000A00C3F30A510290401A0090402867DABE
:10030000C3F3130040F4801B0198924620B10023F0
:10031000D2EB030A63EB0B0B00985946C0F1400285
:10032000504600F089F980460C4650465946009ADE
:1003300000F0A1F9C0197141EF1785EA11533B4351
:100340003FD0019A4AB3009A012A11DC0022801A98
:1003500061EB05514FF0004303EA0555CDE9002557
:10036000801841F580114246234600F0A3F9BAE710
:100370002E050025401B61EB0601401941F5801256
:10038000001852412818A6F5001343EB020140EA79
:10039000D47018EB0808644113E064084FEA380889
:1003A0004FF0000244EAC0744FEA0553801A61EB33
:1003B0000301801841F5801149084FEA3000801888
:1003C00059414246234603B0BDE8F04F00F065B9FD
:1003D0000198012240000023D0EB020263EBE0739E
:1003E00001984FEAE074381A66EB0401EBE783F0FA
:1003F00000435DE781F000415AE72DE9FE4F81EAB5
:10040000030421F0004504F0004423F000414FF0C4
:10041000000A009450EA050302D052EA010304D115
:100420000020014603B0BDE8F08FC1F30A53C5F3C5
:100430000A542344A3F2F3330193A0FB02B3C5F3A0
:10044000130545F4801CC1F3130141F480180CFB23
:10045000023300FB083E810A930A41EA8C5143EAC9
:100460008853A1FB03474FEA9C2505FB03734FEA22
:10047000982601FB06373D05260545EA1435BBEBFA
:1004800006016EEB0503850E920E45EA8C1542EAD5
:100490008812A5FB0206261E67EB00070C0D44EA36
:1004A0000334A61947EB1350C1F313044FF00003B4
:1004B0001946E5FB02014FEA033545EA1455019B55
:1004C0004FEA0432009CA3F10C03CDE900A445EAF5
:1004D000060502932B4600F0EDF8A3E72DE9F04D59
:1004E00081EA030404F0004B21F0004714464FF06A
:1004F000000A23F0004150EA070220D054EA01022A
:100500001DD0C1F30A550246C1F31300C7F30A56C2
:10051000C7F3130340F4801143F48013A6EB0508DE
:10052000101BD64608F2FD3873EB010002D308F128
:10053000010801E092185B41B8F1000F03DA0020D6
:100540000146BDE8F08D00204FF4801506460746B1
:100550000EE0B2EB040C73EB010C04D3121B064348
:1005600063EB01032F436D084FEA300092185B41A3
:1005700050EA050CEDD152EA030012D082EA0400E1
:1005800083EA0105284303D100224FF0004308E02D
:10059000101B8B4102D20122002302E06FF0010206
:1005A00053101AEB060047EB085110EB0A0041EB21
:1005B0000B01BDE8F04D00F070B8C1F30A52C1F371
:1005C000130140F2FF3341F480119A4202DA002015
:1005D0000146704740F233439A42A2F2334202DCB2
:1005E000524200F038B800F027B8000030B50029BA
:1005F00004DB4FF00044404264EB0101002B04DBBC
:100600004FF00044524264EB0303994208BF90420A
:1006100030BD0000064C074D06E0E06840F00103E5
:1006200094E8070098471034AC42F6D3FFF784FDF6
:1006300044DC020864DC0208202A04DB203A00FAC9
:1006400002F1002070479140C2F1200320FA03F329
:10065000194390407047202A04DB203A21FA02F027
:100660000021704721FA02F3D040C2F120029140EC
:10067000084319467047202A06DBCB17203A41FA77
:1006800002F043EAE07306E041FA02F3D040C2F11F
:100690002002914008431946704710B5002B08DA34
:1006A000401C41F1000192185B411A4301D120F036
:1006B000010010BD2DE9FF4D934611B1B1FA81F251
:1006C00002E0B0FA80F220329246FFF7B5FF039ABB
:1006D0000746884640EA0B0011435B46084304D1B5
:1006E0003846414604B0BDE8F08D114653EA020099
:1006F00016D0CAF140025846FFF7ADFF04460D463A
:100700004FF00106584652460399FFF795FF0843FC
:1007100000D10026344345EAE675274345EA080838
:100720000E984FF00005A0EB0A014FEAD7200A31DE
:100730004FEA47532A4640EA48504FEAD82402D5A8
:1007400000200146CEE7281844EB0151DDE90C45B5
:10075000001904B06941BDE8F04D9EE770B501EBAA
:10076000020410F8015B15F0070301D110F8013BFA
:100770002A1106D110F8012B03E010F8016B01F8E3
:10078000016B5B1EF9D12B0705D40023521E0FD439
:1007900001F8013BFAE710F8013B02F10202A1EB7C
:1007A000030303E013F8015B01F8015B521EF9D566
:1007B000A142D6D3002070BD704770477047704784
:1007C0007047704770477047704770477047704771
:1007D00070477047704770470349C20002D5C1F89F
:1007E0000404704748607047000002400029016817
:1007F00002D041F0010101E021F0010101607047E8
:10080000024600200549D30002D5D1F8001400E0CB
:100810000968114200D0012070470000000002402A
:1008200030B5036847F6F07293430C6A8A68224336
:10083000D1E904452C4322438C692243CC692243ED
:100840004C6A22438C6A22431A430260CA6842609F
:100850000A6882604968C16030BD000030B58BB065
:1008600005460C461348FFF7B7FF00211248FFF773
:10087000BDFF12480090019500200290A00803904F
:100880000020049080200590800006908000079052
:10089000002008904FF40050099000200A9069460B
:1008A0000548FFF7BDFF01210348FFF79FFF0BB08D
:1008B00030BD000000F00010440402408080014080
:1008C00030B58BB005460C461348FFF785FF002175
:1008D0001248FFF78BFF12480090019510200290FC
:1008E000A0080390002004908020059080000690CE
:1008F00080000790002008904FF4005009900020DD
:100900000A9069460548FFF78BFF01210348FFF76E
:100910006DFF0BB030BD000000F000104404024039
:1009200080800140704738B50446E0B28DF8000081
:1009300000208DF801008DF802008DF80300684654
:1009400000F0BAFA38BD704770477047704770477B
:1009500070477047704738B50446E0B28DF8000024
:1009600000208DF801008DF8020001208DF80300B1
:10097000684600F0A1FA38BD0149C8607047000020
:100980000020024070B5054640F6FF76304600F084
:1009900077F8042813D10A4C206940F00200206146
:1009A0006561206940F040002061304600F068F841
:1009B000012804D0216941F6FD721140216170BD0A
:1009C0000020024008490420CA68D20701D0012053
:1009D0007047CA68520701D502207047C968C90626
:1009E000FBD5032070470000002002407047000044
:1009F0000248016941F08001016170470020024016
:100A000004490A6822F010020A600A6802430A6078
:100A1000704700000020024070B505460E460F20CA
:100A200000F02EF804280FD1084C206940F0010096
:100A300020612E800F2000F023F8012804D02169C6
:100A400041F6FE721140216170BD0000002002409D
:100A500004490A6802F038020A600A6802430A6020
:100A600070470000002002400348024941600349EA
:100A7000416070472301674500200240AB89EFCDFC
:100A800000B50346FFF79EFF05E0FF21491EFDD19B
:100A9000FFF798FF5B1E012803D0002B00D1052033
:100AA00000BD002BF1D1FAE77047000008B54FF404
:100AB0000070ADF8000018208DF8030003208DF8B9
:100AC000020069463E4800F083F84FF48060ADF8BC
:100AD000000004208DF803006946394800F078F8DA
:100AE0004FF4F850ADF8000003208DF802001820F4
:100AF0008DF803006946334800F06AF80420ADF829
:100B000000006946304800F063F84FF48050ADF8BB
:100B1000000003208DF8020010208DF803006946C4
:100B20002A4800F055F83720ADF8000003208DF872
:100B3000020010208DF803006946214800F048F8B3
:100B400037211F4800F091F80220ADF80000032083
:100B50008DF8020010208DF8030069461B4800F054
:100B600037F80221194800F080F84FF4C850ADF86A
:100B7000000002208DF8020004208DF80300694671
:100B80000F4800F025F848F26000ADF800000220A0
:100B90008DF8020004208DF8030069460B4800F030
:100BA00017F8C020ADF8000002208DF802000420E4
:100BB0008DF803006946034800F00AF808BD0000FC
:100BC000000801400010014000140140000C0140E9
:100BD000F0B5CC78002204F00F03E40601D58C7840
:100BE00023430C884FF00F0C14F0FF0F4FF0010E51
:100BF00019D005680E880EFA02F42640A6420ED1DE
:100C000096000CFA06F7BD4303FA06F63543CE7894
:100C1000282E00D14461CE78482E00D10461521CA8
:100C2000082AE7D305600A88FF2A1DD945680022F3
:100C300002F108060EFA06F40E882640A6420FD1ED
:100C400096000CFA06F725EA070703FA06F5CE78B0
:100C50003D43282E00D14461CE78482E00D1046156
:100C6000521C082AE4D34560F0BD016170470000C2
:100C700002A000F047FC00BFFEE70000486172647C
:100C8000204572726F72210A0000000070477047A1
:100C90007047704700604060704700604060704778
:100CA0000146002900DB09B9012070470020FCE75C
:100CB00002494AF6AA200860704700000030004050
:100CC00001494860704700000030004001498860D9
:100CD0007047000000300040014908607047000084
:100CE0000030004010B588B0474C0AF0C7FE0BF04A
:100CF00011F846A000F006FC2068D8B90020079043
:100D00000690059047A000F0FDFB4A4B4A4A00219F
:100D10008DE80E0005AB06AA07A948480BF0F4FDC4
:100D200046480BF04FFE45480BF0B2FE434802F038
:100D300077FF61E042A000F0E5FB334909780A063D
:100D40003149497842EA01422F49897842EA012132
:100D50002D4AD27841EA020004F0FEFC07903D499A
:100D600009780A063B49497842EA014239498978BB
:100D700042EA0121374AD27841EA020004F0ECFC51
:100D80000690354909780A063349497842EA014212
:100D90003149897842EA01212F4AD27841EA02009A
:100DA00004F0DAFC05902D4909780A062B494978A8
:100DB00042EA01422949897842EA0121274AD27848
:100DC00041EA020004F0C8FC049003F0EDF804A925
:100DD000002003F0C7FA174B174A00218DE80E00D8
:100DE00005AB06AA07A915480BF08EFD13480BF0BA
:100DF000E9FD12480BF04CFE12F0C2FD18A000F005
:100E000081FB08B010BD0000110100205443502F99
:100E1000495020696E697469616C697A696E672EE0
:100E20002E2E0A007573696E672064686370210A4C
:100E3000000000008D490008194A0008CC15002068
:100E40007573696E672073746174696320697021BA
:100E50000A00000015010020190100201D010020DA
:100E60005443502F495020696E697469616C697AE6
:100E700065642E0A000000007047704708B5002125
:100E80004FF0006000F052F81C208DF800000020A8
:100E90008DF801008DF8020001208DF803006846EE
:100EA00000F00AF808BD00000249014808607047D8
:100EB0000400FA050CED00E0F0B50F24C2780178CB
:100EC0004FF0E023012742B3D3F80C2D02F4E06287
:100ED000C2F5E062120AC2F10405D4404278AA4089
:100EE0008578254015438A072C01D20E944021F0C5
:100EF0000301CE18D6F80054FF2191408D430C40D9
:100F00002543C6F80054007800F01F018F404009C7
:100F100003EB8000C0F80071F0BD01F01F008740B6
:100F2000480903EB8000C0F88071F0BD024A11400F
:100F3000014302480160704780FFFF1F08ED00E099
:100F40007047704770470000034A516821F44041E0
:100F5000014351607047000000100240044A00291C
:100F6000516901D0014300E08143516170470000A5
:100F700000100240044A0029D16901D0014300E079
:100F80008143D1617047000000100240044A0029EB
:100F9000916901D0014300E08143916170470000F5
:100FA0000010024010B500F04BF84FF4803000F014
:100FB000D9F800F021F90446012C27D1002000F0D7
:100FC000C7F8002000F0F4F8A00200F0E7F80220D3
:100FD000FFF73EFD1020FFF713FD4FF4E011200452
:100FE00000F0F6F8A003FFF7AFFF012000F0EAF8E9
:100FF00000BF392000F08CF80028FAD0022000F061
:10100000F1F800BF00F09CF80828FBD101214FF453
:101010000470FFF7BBFF01210848FFF7ABFF012178
:1010200045F23D00FFF7B2FF01218802FFF796FF6E
:1010300001210220FFF792FF10BD0000030006000F
:101040000B48016841F0010101604168094A114003
:1010500041600168084A11400160016821F4802163
:101060000160416821F4FE01416000218160704708
:10107000001002400000FFF8FFFFF6FE204A10B506
:101080005168204B11F00C0103D0042901D008292C
:1010900001D0036011E05168022301F4701103EBE9
:1010A0009141536813F4803F02D053689B0301D5EC
:1010B000154B00E0134B594301605168134B01F08D
:1010C000F00109095C5C0168E1404160546804F486
:1010D000E064240A1C5D21FA04F48460546804F47A
:1010E0006054E40A1B5DD940C1605268074B02F4AA
:1010F0004042920B1B1F9A5CB1FBF2F1016110BDE3
:101100000010024000127A0000093D0068DB02086E
:10111000034600205909094A01290AD002290AD0A8
:10112000516A03F01F02012393400B4200D00120BB
:1011300070471168F5E7116AF3E7000000100240FC
:101140000248406800F00C007047000000100240A8
:10115000034A516821F0F0010143516070470000DB
:10116000001002400B490A6822F480320A600A68C3
:1011700022F480220A60B0F5803F07D0B0F5802FBE
:1011800003D1086840F4A02008607047086840F464
:101190008030F9E70010024070470000034A5168B0
:1011A00021F4E061014351607047000000100240EB
:1011B000034A516821F4605141EAC0005060704711
:1011C00000100240014908667047000000004242DA
:1011D000034B5A68084322F47C121043586070474E
:1011E00000100240034A516821F00301014351609D
:1011F000704700000010024030B50B4C40F2FF1564
:101200003120FFF785FF20706068401C6060207807
:1012100010B96068A842F3D13120FFF779FF0028A8
:1012200000D0012030BD0000280100207047704729
:10123000014988637047000000800140014908604F
:1012400070470000A000304201490860704700006C
:101250008C05304210B5094902684A6242688A62C8
:10126000CA6AD0E902342343D0E90440044322F09F
:10127000F70223431343CB6210BD000000800140FE
:1012800010B50DF0C5FA10BD044A0029D16B01D08C
:10129000014300E08143D1637047000000800140BA
:1012A00030B5094B596847F6FF6291430278C4682C
:1012B0000569224384682C432243446840692243E1
:1012C00002430A435A6030BD0080014010B508490E
:1012D00002688A60CA68D0E901342343D0E9034038
:1012E00004436FF30A0223431343CB6010BD000095
:1012F0000080014004490A6822F003020A600A687B
:1013000002430A6070470000008001407047704748
:101310007047704770477047704770477047704715
:1013200010B512F0D7FA10BD70477047704770477C
:1013300070477047704770477047C94301827047D4
:101340000029018802D041F0010102E040F2FE32A2
:1013500011400180704702460020138A92890B4297
:1013600002EA010202D0002A00D001207047002AC0
:10137000828901D00A4300E08A4382817047018557
:1013800082827047028802F08F020280CA884B88EE
:101390001A4303881A4302808A8882850A88028554
:1013A00001228282044A904202D0044A904201D132
:1013B000097A018670470000002C0140003401408A
:1013C0007047704770477047704710B5028A4FF2F8
:1013D000FF031A400B884C8823438C88C9880C4330
:1013E00023431343038210BD0029818902D041F4B5
:1013F000005101E021F400518181704710B586B0A1
:1014000004460020ADF80000ADF802004FF4007073
:10141000ADF804000020ADF8060069462046FFF74D
:10142000D4FF4FF4E13002900020ADF80C00ADF88D
:101430000E00ADF81000ADF814000C20ADF812004D
:1014400002A9204600F00EF801212046FFF7CCFF4C
:1014500006B010BD0246002012880A4200D00120CA
:101460007047000030B50446008A85B00D464CF642
:10147000FF710840E98801432182A1894EF6F310EB
:101480000140A8882A8910436A890A431043A08131
:10149000A08A4FF6FF410840A9890143A18268460E
:1014A000FFF7ECFD1148844201D1039800E0029857
:1014B000642200EBC00101EB001029686FF01805F1
:1014C0008900B0FBF1F0B0FBF2F109010B096B43AD
:1014D00000EB8300322303EB0010B0FBF2F000F0CE
:1014E0000F000843208105B030BD000000380140E6
:1014F000C1F308018180704770477047704770479B
:10150000704700000FB4054B10B503A9044A0298B8
:1015100000F00CFA10BC5DF814FB0000F14D00085F
:101520007C0400200FB41CB50A46521ECDE900020F
:1015300007A9054B6A46069800F0F8F9009A0021C1
:1015400011701CBC5DF814FBD12400080FB4084BCB
:1015500010B504A902AA039800F0E8F9044602A90C
:10156000002000F0C0FF204610BC5DF814FB000016
:10157000E7240008014B024A00F0ECBBF14D0008E3
:101580007C04002070B505460C4604B90DE000202F
:10159000E06020614FF480616069FEF708FE05F1AC
:1015A0008401204609F08BFE00BF70BD2DE9FF4F7E
:1015B00083B00646884691469A46DDF840B0B76A41
:1015C0000024119BCDE900B353464A4641463046BC
:1015D00000F072F805462846FFF762FB20B1284666
:1015E000FFF7AEFC044641E04FF47A70029000BF72
:1015F00026E038680BF02EFF0446002C04DA1DA00C
:10160000FFF780FF00BFFEE714F0010F03D038683A
:1016100004F018FD15E014F0020F03D0386804F050
:1016200011FD0DE002A9002012F047F940B10120A0
:10163000C6F8AC00304609F0B4FC6FF0480400E096
:10164000D7E700BF03E01148FFF75CFFD0E7288B26
:101650000028F8D0AC6824B1224641460CA0FFF720
:1016600051FF29463046FFF78DFF00BF204607B0E7
:10167000BDE8F08F7265616420696E746572727581
:101680007074206572726F72210A000078DB0208A4
:10169000505245505F434D443A20636F6D6D616E0B
:1016A0006420307825303478206661696C65643A4E
:1016B0002025640A000000002DE9F04705460F468A
:1016C00090461E46DDE9089A95F8EC0128B16FF0C6
:1016D0000100FFF738F9044633E0284607F05AFFC7
:1016E000044644B9284609F05CFC6FF03600FFF769
:1016F0002AF9044625E0C4F80C90C4F810A032463C
:1017000041466069FEF72CFD35F8740F401C2880B7
:101710006069078061694E8035F874096169888065
:1017200000206169C880394607A0FFF7EBFE002062
:1017300020832146284608F0D3FD284609F031FCD5
:1017400000BF2046BDE8F087505245505F434D44EE
:101750003A20636F6D6D616E642030782530347887
:101760000A000000506002604160086070475060ED
:10177000026041600860704702E008C8121F08C19B
:10178000002AFAD170477047002001E001C1121F02
:10179000002AFBD1704700002DE9FF5FDDE9021050
:1017A000020DDDF838B001430FD10F9801244AA390
:1017B000012807D000980F9AC0E90031C0E9024221
:1017C000BDE8FF9F6FEA0B01F4E7A2F2FF3244F697
:1017D0001050424315140F9801280FD0A5EB0B00B1
:1017E000401C4FF000043D4EDFF8F490B0F1000AC9
:1017F000A046C0F1000717DB074615E0CBF100005B
:10180000EFE7F80707D02246334640464946FEF741
:10181000F4FD804689462246334620463146FEF78F
:10182000ECFD04460E467F10002FEAD1DDE90201EF
:10183000BAF1000F42464B4602DAFEF7DEFD01E048
:10184000FEF74CFE04460E460022264BFEF7CEFE67
:1018500003D84FF0FF30014607E00022224B20461C
:101860003146FEF725FDFEF7A8FE102409E0002C06
:101870000ADB0A220023FEF7E8FC019B30321A55EE
:10188000641E50EA0102F2D1641C019AC4F11103F2
:1018900014440F9A012A07D00122084301D15B4565
:1018A0000DDD00226D1C0DE0084303D1A3EB0B05F9
:1018B0006D1E09E000204FF0110B0F908BE701DA4D
:1018C00000226D1E002A86D000980F99C0E90231CF
:1018D000C0E9004574E7000030000000000024402B
:1018E0000000F03F0000F0430000E03F70B58CB016
:1018F00006460C462C2101A8FEF759FC0720019052
:101900002CB16068000402901520079002E00020CE
:1019100002900790032201A930460AF0BDFF054658
:1019200015B128460CB070BD0020FBE72DE9FF4F34
:101930008DB005460F460026EEE1252879D100241A
:101940006D1CF94AA246A14601212B78203B01FAE1
:1019500003F0104202D004436D1CF6E728782A28D1
:1019600010D06FF02F022878A0F13001092915D886
:101970000AEB8A0102EB410144F0020400EB010A88
:101980006D1CF0E757F804ABBAF1000F03DA44F42A
:101990000054CAF1000A44F002046D1C28782E2875
:1019A00017D115F8010F44F004042A280ED06FF067
:1019B0002F022878A0F1300109290AD809EB890102
:1019C00002EB410100EB01096D1CF2E757F8049BA3
:1019D0006D1C28786C280FD006DC4C2817D068289E
:1019E0000DD06A2814D104E0742810D07A280FD1C1
:1019F0000DE044F400140AE044F4801401E044F4DF
:101A000040146978814202D16D1C04F580146D1C6C
:101A100095F800C0BCF16E0F2AD012DCBCF1630F48
:101A20003CD007DCBCF1000F76D0BCF1580F19D1C7
:101A3000ACE018E0BCF1640F6FD0BCF1690F11D1BC
:101A40006BE0BCF1730F32D006DCBCF16F0F71D0CC
:101A5000BCF1700F06D19BE0BCF1750F6BD0BCF1EF
:101A6000780F69D06046DDE90F129047761C52E18D
:101A7000C4F30250022806D003280AD0042801CF5C
:101A80000AD0066047E101CF4FEAE671C0E9006184
:101A900041E101CF06803EE106703CE101CF8DF8C7
:101AA000000000208DF80100EB46012003E057F80C
:101AB00004BB4FF0FF3061074FF0000102D40DE08E
:101AC00008F10101884649450FDA8045F8DB1BF82B
:101AD00008100029F4D108E008F10101884681428C
:101AE000FADB1BF808100029F6D1DDE90F23AAEB79
:101AF00008008146214600F0BDFC304400EB08069A
:101B000004E0DDE90F121BF8010B9047B8F1010862
:101B1000F7D221464846F9E002E10A20C4F3025216
:101B20004FF0000B0890022A07D001CFC117032AFB
:101B300009D00AE035E022E023E0FF1D27F0070787
:101B4000F7E8020105E000B2C117042A01D140B252
:101B5000C117002906DA0023D0EB030063EB010173
:101B60002D2202E0220504D52B228DF8242001220B
:101B700003E0E20701D02022F7E7904653E00A2174
:101B800010E010204FF0000B08900EE0102109E04B
:101B900010214FF0000B44F004044FF008090891A5
:101BA00003E008214FF0000B0891C4F30252022A0F
:101BB00004D001CF0021032A06D007E0FF1D27F043
:101BC0000707F7E8020105E080B20021042A01D1ED
:101BD000C0B200214FF00008220724D5BCF1700FDD
:101BE0002AD0089B83F0100353EA0B0309D150EA73
:101BF000010206D030228DF824208DF825C0022263
:101C00009046089B83F0080353EA0B030BD150EA7C
:101C1000010201D1620706D530228DF824204FF051
:101C20000108A9F1010941A2BCF1580F00D044A25A
:101C30000B9208AA0A920FE040228DF8242001227C
:101C4000DEE75B46089AFEF700FB0B9B9B5C0A9A5B
:101C5000A2F101020A92137050EA0102F1D10A982E
:101C6000ADEB000000F1200B600702D524F48034B6
:101C700001E04FF00109002049465A46D94501DDEF
:101C8000A1EB020000EB0B0141440890AAEB01001C
:101C90000B90E00306D4DDE90F2321460B9800F0FA
:101CA000E9FB06444FF000090DF1240A07E0DDE9E5
:101CB0000F121AF809009047761C09F10109C14575
:101CC000F5DBE0030CD5DDE90F2321460B9800F08E
:101CD000D1FB064404E0DDE90F1230209047761C6A
:101CE0000899481E08900029F5DC08E00A980A992E
:101CF0000078491C0A91DDE90F129047761CBBF170
:101D00000001ABF1010BF1DC0B982146DDE90F235B
:101D100000F08AFB06446D1C287800287FF40DAE85
:101D200011B03046BDE8F08F092801003031323360
:101D300034353637383941424344454600000000C7
:101D40003031323334353637383961626364656631
:101D5000000000002DE9FF4F95B006469A460F4659
:101D60000025F2E1252878D10024761CFB4AA04604
:101D7000012106943378203B01FA03F0104202D08F
:101D80000443761CF6E730782A2811D06FF02F0232
:101D90003078A0F13001092915D8069944F00204E1
:101DA00001EB810102EB41010844761C0690EFE74C
:101DB00001CF0690002803DA404244F40054069014
:101DC00044F00204761C30782E2817D116F8010F43
:101DD00044F004042A280ED06FF02F023078A0F1CE
:101DE000300109290AD808EB880102EB410100EB18
:101DF0000108761CF2E757F8048B761C30786C28C3
:101E00000FD006DC4C2817D068280DD06A2814D1D2
:101E100004E0742810D07A280FD10DE044F40014A7
:101E20000AE044F4801401E044F4401471788142E3
:101E300002D1761C04F58014761C3078864666281C
:101E40000AD012DC582872D008DC80B3452803D0B1
:101E5000462801D047281AD196E118E0632832D0ED
:101E6000642875D0652812D18EE170286ED008DC08
:101E700067286CD069286BD06E280DD06F2806D1EA
:101E8000A9E0732828D075286FD078286ED05246E4
:101E9000179990476D1C56E1C4F30250022807D0F1
:101EA00003280BD0042801CF0BD005604BE150E193
:101EB00001CF4FEAE571C0E9005144E101CF05804F
:101EC00041E105703FE101CF8DF8000000208DF861
:101ED0000100EB46012003E057F804BB4FF0FF3050
:101EE00061074FF0000102D40DE009F101018946BC
:101EF00041450FDA8145F8DB1BF809100029F4D1C0
:101F000008E009F1010189468142FADB1BF809105A
:101F10000029F6D106985346A0EB090080462146D9
:101F2000179A00F0BEFA284400EB090505E047E0E7
:101F30001BF8010B524617999047B9F10109F7D2E6
:101F4000534621464046179AFAE001E03AE01BE189
:101F50000A21C4F302524FF0000B0091022A06D06E
:101F600001CFC117032A08D009E022E023E0FF1DBA
:101F700027F00707F7E8020105E000B2C117042ABD
:101F800001D140B2C117002906DA0A4600214042B9
:101F900061EB02012D2202E0220504D52B228DF8EF
:101FA0000420012203E0E20701D02022F7E7914656
:101FB00053E00A2110E010204FF0000B00900EE0DB
:101FC000102109E010204FF0000B44F004044FF002
:101FD0000808009003E008214FF0000B0091C4F3C3
:101FE0000252022A04D001CF0021032A06D007E0C2
:101FF000FF1D27F00707F7E8020105E080B2002186
:10200000042A01D1C0B200214FF00009220724D5D3
:10201000BEF1700F2AD0009B83F0100353EA0B032C
:1020200009D150EA010206D030228DF804208DF843
:1020300005E002229146009B83F0080353EA0B035C
:102040000BD150EA010201D1620706D530228DF88A
:1020500004204FF00109A8F1010841A2BEF1580F78
:1020600000D044A203920FAA02920FE040228DF802
:1020700004200122DEE75B46009AFEF7E6F8039BA8
:102080009B5C029AA2F101020292137050EA0102D3
:10209000F1D1029807A9A1EB000000F1200B600725
:1020A00002D524F4803401E04FF0010800204146BD
:1020B0005A46D84501DDA1EB020000EB0B01009070
:1020C00006984944A0EB01000690E00306D453466D
:1020D0002146179A069800F0E4F90544002008E02C
:1020E00001A8524610F80800179990476D1C08F196
:1020F000010080464845F3DBE0030CD553462146FA
:10210000179A069800F0CDF9054404E030205246B5
:10211000179990476D1C0099481E00900029F5DC26
:1021200008E00298029952460078491C02911799DA
:1021300090476D1CBBF10001ABF1010BF1DC67E1D5
:1021400000F085F9054406F10106307800287FF497
:1021500009AE19B02846BDE8F08F0000092801003B
:1021600030313233343536373839414243444546CD
:10217000000000003031323334353637383961628F
:102180006364656600000000600701D44FF0060834
:1021900007F1070727F00707A0A1F7E8020C0CF0EA
:1021A00000431A0007D19EA1220504D49DA1E20795
:1021B00001D1AFF2440112912CF0004C7146BEF1F6
:1021C000650F0ED007DC45290BD0462920D0BEF183
:1021D000470F3DD13DE066291AD0BEF1670F37D1D8
:1021E00037E0002311224146B8F1110F00DA4A1CF2
:1021F000CDE900230246634607A902A8FFF7CCFAFF
:10220000012000904FF0000B08F10109039868E0ED
:102210004FF000410F910123CDE900830246634650
:1022200007A902A8FFF7B8FADDE904904FF0000B08
:1022300020B9039908F1010001EB0009B8EB09008E
:1022400003D4C0F1FF3B08F10109A9EB080000909D
:1022500048E04146B8F1010F01DA01218846002328
:102260001122B8F1110F00DC0A46CDE90023024625
:10227000634607A902A8FFF78FFA4FF0000BC1468B
:1022800020070FD40499414503DA894601E0A9F1FA
:102290000109B9F1010F05DD0299A9F10100085CFE
:1022A0003028F4D00399414502DA11F1040F03DA22
:1022B00001200F91009015E0002903DC8B44A9EB6D
:1022C000010005E0481C484503DD039800F10100CA
:1022D00081460399A1EB0B0000F1010000904FF043
:1022E00000400F90200705D40098484502DB4FF0CE
:1022F000FF30009000210F980DF147088DF847102E
:10230000B0F1004F26D0022001902B2013900F989F
:1023100000280CDA40420F902D20139007E00A218C
:102320000F98FDF77CFF30310F9008F8011D0199DF
:10233000481E01900029F2DC0F980028EFD1A8F187
:10234000010213991170317801F0200141F045012B
:1023500008F8021D10A9A1EB080000F10700019088
:102360001298007800B1012000EB0901009801EB00
:10237000E071019801440698A0EB0100A0F1010072
:102380000690E00306D453462146179A069800F0BB
:1023900088F805441298007820B152461799904762
:1023A00005F10105E00322D553462146179A069808
:1023B00000F077F805441AE0BBF1000F07DB049941
:1023C000594504DD029911F80B00179901E017999E
:1023D00030205246904700986D1C401E0BF1010BB7
:1023E000009004D12E205246179990476D1CB9F1E8
:1023F0000001A9F10109DFDC05E018F8010B5246E4
:10240000179990476D1C0199481E01900029F4DC32
:1024100053462146179A069892E600002D000000C8
:102420002B000000200000002DE9F04104460025AB
:1024300017461E46880405D406E039462020B047DA
:1024400005F10105641EF8D52846BDE8F0812DE9A7
:10245000F0410446002517461E46880405D406E0D0
:1024600039462020B04705F10105641EF8D52846FD
:10247000BDE8F0812DE9F041044600253027904663
:102480001E46C80300D42027880405D506E041462F
:102490003846B04705F10105641EF8D52846BDE869
:1024A000F0812DE9F04104460025302790461E4674
:1024B000C80300D42027880405D506E041463846E5
:1024C000B04705F10105641EF8D52846BDE8F08146
:1024D0004A68002A06D00A68531C0B6010704868CE
:1024E000401E486070470A68531C0B6010707047AC
:1024F0002DE9F0470746884615461E46DDF8209030
:1025000012480068874201DABDE8F087324641464A
:102510000FA0FEF7F7FF1DB913A0FEF7F3FF0FE0C2
:10252000B9F1000F09D0002404E0295D10A0FEF7E6
:10253000E9FF641CB442F8D302E00FA0FEF7E2FF0B
:1025400010A0FEF7DFFF00BFDEE700001000002054
:102550002573202D2068657864756D70286C656E14
:102560003D256C75293A0000205B4E554C4C5D00B2
:102570002025303278000000205B52454D4F5645F3
:10258000445D00000A0000000146012001E0420411
:10259000100C884202DAB0F5007FF8DB70470000CB
:1025A0002DE9F04105460C4600260027214605206E
:1025B00011F074F988B104F12A010F4800F05CFCB5
:1025C00058B104F12A010D4800F056FC28B121460B
:1025D000284600F015F8064601274FB9214601208C
:1025E00011F05CF920B12146284600F017F90646A3
:1025F0003046BDE8F0810000C0410108C641010835
:102600002DE9F04106460C46002794F8282004F1F5
:102610002A01304606F0D2FE05462DB904F12A0102
:1026200013A0FEF76FFF1FE0C6F800514FF4F872D9
:10263000294604F5B270FDF793FD94F828000228AE
:1026400009D12146304608F061FD0746394615A0FC
:10265000FEF758FF07E094F82800012803D121462F
:10266000304605F09BF900BF3846BDE8F081000018
:102670004153534F433A205741503A204253534914
:10268000442025704D206E6F7420666F756E642C2B
:102690002063616E6E6F74206173736F6369617420
:1026A000652E0A004153534F433A206C62735F74A6
:1026B00072795F6173736F636961746528627373A4
:1026C0006964292072657475726E65642025640AD8
:1026D0000000000070B505460C460026284608F0AC
:1026E00052FD06461EB126A0FEF70CFF46E094F808
:1026F000261095F8D900814200D13FE094F82620B9
:1027000095F8D91028A0FEF7FDFE94F8261028466B
:1027100008F095FA0646002E02DA2AA0FEF7F2FE2D
:10272000284608F030FD06461EB115A0FEF7EAFE69
:1027300024E094F8261095F8D900814205D094F849
:1027400026102AA0FEF7DEFE17E04FF48D70005D24
:1027500070B1208E40B95620005B28B9B4F87C00D7
:1027600010B9B4F8A20018B1214606200BF0D2FD32
:10277000214601200BF0CEFD00BF00BF304670BDEA
:102780004153534F433A206368616E6E656C3A2043
:102790006572726F722067657474696E6720636812
:1027A000616E6E656C2E0A004153534F433A2063AD
:1027B00068616E6E656C3A202564202D3E2025648C
:1027C0000A0000004153534F433A206368616E6E24
:1027D000656C3A206572726F722073657474696EED
:1027E00067206368616E6E656C2E0A004153534F1B
:1027F000433A206368616E6E656C3A206661696C6D
:10280000656420746F20757064617465206368610D
:102810006E6E656C20746F2025640A002DE9FC4102
:1028200006460C4600274FF0FF382146022011F0E3
:1028300035F808B194F82680211D2DA0FEF762FE20
:1028400094F8280002281ED10222CDE9002894F82D
:1028500025200023211D304606F0E6FD054675B112
:10286000C6F800514FF4F872294604F5B270FDF72E
:1028700077FC2146304608F049FC074635E022A0A7
:10288000FEF740FE31E094F8280001282DD1012206
:10289000CDE9002894F825200023211D304606F0BC
:1028A000C3FD054685B1C6F8005120A0FEF72AFEFB
:1028B0004FF4F872294604F5B270FDF751FC214639
:1028C000304605F06BF810E01EA0FEF71BFE20223C
:1028D000211D04F5B570FDF743FC94F8251084F82C
:1028E0008B112146304605F03DFB3846BDE8FC81A2
:1028F00053534944202725732720726571756573EA
:102900007465640A0000000053534944206E6F74DC
:1029100020666F756E643B2063616E6E6F7420611C
:1029200073736F63696174650A000000535349440F
:1029300020666F756E642C2077696C6C206A6F69F5
:102940006E0A000053534944206E6F7420666F7501
:102950006E642C206372656174696E6720616468BF
:102960006F63206E6574776F726B0A0070B50546F1
:102970000C46002694F8280095F8E910884200D10A
:1029800012E094F82800022802D10020A5F8EE01F8
:1029900094F8280085F8E90094F8282000212846BA
:1029A00008F02BFA064600BF304670BD7CB50646DF
:1029B0000C4600250020009006F5007004F580719B
:1029C000CA69896906C0304608F08BF96A46002159
:1029D000304606F0EDF8054625B1294614A0FEF76D
:1029E00091FD23E094F8180118B940F21910005D28
:1029F00008B1012000E0002080B20190BDF8040081
:102A0000BDF80010884200D110E0BDF8041010A0FD
:102A1000FEF778FD01AA0121304606F0C9F8054607
:102A2000BDF8041011A0FEF76DFD00BF28467CBD67
:102A30004661696C656420746F2067657420525329
:102A40004E207374617475733A2025640A00000087
:102A50006D726C207365742072736E20616374698B
:102A60006F6E3A2025640D0A000000006D726C2024
:102A70007365742072736E20726573756C743A207E
:102A800025640D0A000000002DE9F04105460C46C2
:102A90000027208E40B95620005B28B9B4F87C008E
:102AA00010B9B4F8A20030B122460221284606F03F
:102AB00085F9074605E022460421284606F07EF9FE
:102AC000074607B130E04FF48D70005D30B1B5F8C6
:102AD000DA0140F00800A5F8DA0105E0B5F8DA01FE
:102AE00020F00800A5F8DA01284608F0FAF80026D8
:102AF00013E006EB460202EB061304F1300202EB90
:102B0000430106EB460202EB061305F5027202EBE7
:102B100043002622FDF724FB761C042EE9DBB4F8E3
:102B2000C800A5F8A00200BF3846BDE8F08170B526
:102B300005460C46002694F8180118B940F2191001
:102B4000005D70B194F8602104F5907141F2DE00EF
:102B50002844FDF705FB94F8601141F21E10415521
:102B600009E0402141F2DE002844FDF720FB00216E
:102B700041F21E104155304670BD2DE9F041054629
:102B80000C46002627682146092010F087FE50B128
:102B90002146082000F028F922460121284606F0A7
:102BA0002BF80646276006B11EE0262204F1F0014C
:102BB00005F53270FDF7D4FA2146082010F06EFEBC
:102BC00088B12146092000F00FF92246012128464C
:102BD00006F012F806462760262204F1CA0105F223
:102BE000A220FDF7BDFA00BF3046BDE8F08100002D
:102BF0002DE9F04180460D4616461F4635B13A464E
:102C00003146284600F052F8044605E03A4631467F
:102C1000404600F027F8044644B114F1240005D0E2
:102C200033783A4603A105A0FEF76CFC2046BDE8C8
:102C3000F0810000776966690000000025733A2082
:102C40006261642043495354504C5F46554E43459E
:102C50002073697A65202575207479706520257543
:102C60000A00000030B50346042A01D3087810B1E9
:102C70006FF0150030BD48788C7840EA0420A42419
:102C8000E052C878C0F3C300064C205CCC7804F056
:102C90000704054D55F824406043A824E050002067
:102CA000E8E700006C4101087C4101082DE9F04192
:102CB00005460C461746207800F02AF818B16FF048
:102CC0002300BDE8F0812868D0F894600EB91C207C
:102CD00000E02A208046474502D32078012802D010
:102CE0006FF01500EDE7207B617B40EA0120A861D1
:102CF00046B1207F617F40EA012000EB8000400068
:102D0000286202E04FF47A7028620020D9E70000C0
:102D10000246002106E00548405C904201D10120B6
:102D20007047491C0129F6DB0020F9E79C410108A6
:102D3000F0B504461E461078577840EA072390788D
:102D4000D77840EA072511B14B828D8203E0A4F8C1
:102D5000A030A22005530020F0BD00002DE9F05F57
:102D60008246884615469B46AD1CABF1020B0026F9
:102D7000002407E0285DFF2800D105E0285D00B9A8
:102D8000761C641C5C45F5D300BF16B90020BDE875
:102D9000F09FA346134F0020386007EB86090024FC
:102DA00010E047F8249029464846FDF72FFA484698
:102DB000FDF709FA401C81442846FDF704FA401C3F
:102DC0000544641CB442ECD3B8F1000F04D0C8F839
:102DD0002C60C8F8307003E0CAF8C860CAF8CC703C
:102DE0000020D4E784060020012383400A689A4328
:102DF0000A60704710B504464FF4F4712046FDF7A1
:102E0000D6F910BD0146034AD06B00F48000D063B0
:102E1000704700000080014038B5044600230222BC
:102E200019462046009307F02BFF10B14FF0FF30FA
:102E300038BD0023012219462046009307F020FFE9
:102E400010B14FF0FF30F3E70020F1E770B5054611
:102E50000C46002128460CF09BF90021284610F072
:102E600028F9002128460FF0B7FF204608F0E0FDC2
:102E700028460CF05DFA70BD70B5024613460C464C
:102E80001888258868405D886688754028439D8835
:102E9000A6887540284301D0012070BD0020FCE7C2
:102EA0004FF47A7048F6A04106E048F6A04100BF12
:102EB0000A00A1F10101FBD10200A0F10100F4D14F
:102EC000704770B504460E462546284608F0B0FD0A
:102ED00070BD0146002002E04910421CD0B2012919
:102EE000FAD1704770B504460D4600BF4CB900BF1B
:102EF0000FA340F2CD2214A117A0FEF703FB00BFE1
:102F000070BD00BF00BF00BF206A78B1206A0078A2
:102F100008280BD100BF00BF2868216A096B8842CE
:102F200004D100BF00BF204600F010FA00BFE7E761
:102F30002E2E5C6C7749505C7372635C636F7265B4
:102F40005C646863702E63006E6574696620213D61
:102F5000204E554C4C000000417373657274696FCC
:102F60006E2022257322206661696C65642061747D
:102F7000206C696E6520256420696E2025730A0027
:102F80002DE9FC41064600BF56B900BF4AA340F2F6
:102F900051324FA155A0FEF7B5FA00BFBDE8FC8144
:102FA00000BF346A00BF4CB900BF43A340F25332A4
:102FB00058A14EA0FEF7A6FA00BFEFE700BF00BF82
:102FC00000BF206D401C12D000BF00BF206D1E301E
:102FD0003C21B0FBF1F5B5F5803F01D34FF6FF750D
:102FE0002585208D08B90120208500BF00BF606DB8
:102FF000401C12D000BF00BF606D1E303C21B0FBF2
:10300000F1F5B5F5803F01D34FF6FF756585608D0D
:1030100008B90120608500BF00BF14F1340000D161
:1030200000E0606B01900198C0B9019809F046FD7D
:10303000070E7F2F05DC4FF07F4002F08DFB0190E3
:103040000BE0C02F05DB6FF0FF0002F085FB019065
:1030500003E0364802F080FB019000BF14F1380015
:1030600000D100E0A06B0090009848B9206B019956
:1030700008400090012002F06FFB00990843009087
:1030800000BF00BF04F13001304609F0B7FC00BFBB
:1030900000BF01A9304609F0F3FC00BF00BF69463C
:1030A000304609F0A3FC304609F0F2FC0A21204624
:1030B00000F0AEFD00BF71E72E2E5C6C7749505CCE
:1030C0007372635C636F72655C646863702E630027
:1030D000646863705F62696E643A206E65746966E5
:1030E00020213D204E554C4C00000000417373657B
:1030F0007274696F6E2022257322206661696C6587
:1031000064206174206C696E6520256420696E20DE
:1031100025730A00646863705F62696E643A2064B4
:1031200068637020213D204E554C4C000000FFFF8D
:103130002DE9F0410646346A00BF00BF0821204651
:1031400000F066FD002204F13001304601F0BCFAC7
:1031500005460DB100BF00BF6078401C60704FF4A1
:10316000FA7707F2F310394690FBF1F0E08400BFE4
:1031700000BFBDE8F081000070B5064600BF5EB933
:1031800000BF4EA340F2775252A15BA0FEF7BAF9FE
:1031900000BF6FF0090070BD00BF346A00BF5CB9AA
:1031A00000BF46A340F279525DA153A0FEF7AAF9F1
:1031B00000BF6FF00800EEE700BF00224FF49A71E5
:1031C000104609F025FDE061E06920B900BF00BFAD
:1031D0004FF0FF30DFE7607820B95A480068401CA4
:1031E0005849086057480068606000BF00BFE06948
:1031F000406820620120216A0870216A4870062018
:10320000216A88700020216AC870606802F0A4FA00
:10321000216A48600020216A0881216A4881216A68
:10322000C86020780A2805D02078052802D02078A8
:10323000042802D17068216AC8600020216A0861F0
:10324000216A4861216A886100250EE096F828000D
:10325000A84203DD06F12900405D00E00020C1B274
:10326000206A1C304155681C85B2102DEED3002514
:1032700005E00021206A2C304155681C85B2402DA4
:10328000F7D3002505E00021206A6C304155681C09
:1032900085B2802DF7D32C4802F05EFA216AC1F87E
:1032A000EC000020A084002504E0206AF0304555A1
:1032B000681C85B2442DF8D300206CE72E2E5C6C80
:1032C0007749505C7372635C636F72655C646863BA
:1032D000702E6300646863705F6372656174655F1C
:1032E000726571756573743A206E65746966202124
:1032F0003D204E554C4C0000417373657274696FEC
:103300006E2022257322206661696C6564206174D9
:10331000206C696E6520256420696E2025730A0083
:10332000646863705F6372656174655F726571750F
:103330006573743A206468637020213D204E554CBB
:103340004C00000030000020635382632DE9F843F5
:1033500005462C6A002600BF00BF0C21204600F065
:1033600057FC2846FFF708FF06467EBB01223521A1
:10337000204600F08AFA0421204600F094FA042244
:103380003221204600F081FA206B09F097FB80463D
:103390000146204600F08EFA204600F0B9FAA28CD1
:1033A000F03291B2E06909F087FF43221149A06829
:1033B00010F058FB009543230F4AE169A06810F014
:1033C000BBFC284600F01AF800BF02E0FFE700BF90
:1033D00000BF6078401C607042F2107707F2F31073
:1033E0004FF4FA7190FBF1F0E08400BF00BF30466B
:1033F000BDE8F88306CB02080ACB020870B5054683
:1034000000BF4DB900BF11A340F2B95215A11EA0D3
:10341000FEF778F800BF70BD00BF2C6A00BF4CB942
:1034200000BF0AA340F2BB5221A117A0FEF76AF821
:1034300000BFF0E700BFE06910B1E06909F086FE67
:103440000020E061206200BFE5E700002E2E5C6CEA
:103450007749505C7372635C636F72655C64686328
:10346000702E6300646863705F64656C6574655F8B
:10347000726571756573743A206E65746966202192
:103480003D204E554C4C0000417373657274696F5A
:103490006E2022257322206661696C656420617448
:1034A000206C696E6520256420696E2025730A00F2
:1034B000646863705F64656C6574655F726571757F
:1034C0006573743A206468637020213D204E554C2A
:1034D0004C000000F8B505462C6A002600BF00BF6E
:1034E0003A4808B9002001E0384800682063062106
:1034F000204600F08DFB2846FFF73EFE0646F6BB51
:1035000000BF00BF01223521204600F0BEF9012195
:10351000204600F0C8F902223921204600F0B5F912
:10352000298E204600F0E5F904223721204600F0DC
:10353000ACF90121204600F0B6F90321204600F045
:10354000B2F91C21204600F0AEF90621204600F019
:10355000AAF9204600F0DCF900BF00BFA28CF032CF
:1035600091B2E06909F0A8FE43221849A06810F062
:1035700079FA00BF00BF00954323154A00E00AE036
:10358000E169A06810F0D8FB00BF00BF2846FFF734
:1035900035FF00BF01E000BF00BF6078401C6070D5
:1035A0006078062803DA61780120884000E03C203A
:1035B0004FF47A71484387B207F2F310491090FB39
:1035C000F1F0E08400BF00BF3046F8BD06CB020832
:1035D0000ACB020810B50446206920B1206908F022
:1035E00027FA00202061606928B1606908F020FA9C
:1035F00000206061208300BF00BF10BD014600BFF6
:1036000000BF08787047014611F8013B180611F811
:10361000013B40EA034011F8013B40EA032011F866
:10362000012B104300BF00BF704770B503460D4625
:103630000026586980B3188B002855DD5A6900218F
:103640001AE0505C342808D100BF00BF881C81B24A
:1036500008464C1CA1B2165C0EE0505CA84203D197
:1036600000BF00BF501870BD00BF00BF481C81B232
:10367000505C401C084481B2188B884202DD505CCB
:10368000FF28DED17EB3012E07D100BF00BF18692D
:1036900000F16C0280240FE026E0022E06D100BF6C
:1036A00000BF186900F12C02402405E000BF00BFF4
:1036B000186900F12C02C02400210EE0505CA842E1
:1036C00003D100BF00BF5018CDE700BF00BF481CAA
:1036D00081B2505C401C084481B2A14202DA505CC5
:1036E000FF28EBD100BF00BF0020BCE72DE9F0416F
:1036F00007463C6A00206063A063E06333212046F4
:10370000FFF793FF05461DB1A81CFFF77CFFE0649F
:103710003A212046FFF789FF054625B1A81CFFF78F
:1037200072FF206502E0E06C400820653B212046E6
:10373000FFF77BFF054625B1A81CFFF764FF606516
:1037400001E0E06C60652069103000D101E0206983
:103750000069206301212046FFF767FF054635B168
:10376000A81CFFF750FF064601F0F6FF6063032137
:103770002046FFF75AFF054635B1A81CFFF743FF67
:10378000064601F0E9FFA0631C212046FFF74DFF2C
:10379000054635B1A81CFFF736FF064601F0DCFFF1
:1037A000E06306212046FFF740FF054645B3681C4D
:1037B000FFF724FF80082064206C022801D9022032
:1037C0002064002614E0022101EB86014819FFF76E
:1037D0001AFF804601F0C0FF04F1440141F82600C1
:1037E000084600EB8601304600F0BCFD701CC6B2F6
:1037F000206CB042E7D80349304600F0B3FD00BF6B
:10380000BDE8F08106CB020870B50446256A00BF0A
:1038100000BF204609F0DEF80949204609F0EEF81D
:103820000749204609F0E2F80549204609F028F941
:103830000C21284600F0ECF92046FFF74BFE70BD46
:1038400006CB02082DE9F04105462C6A36212046B8
:10385000FFF7EBFE064600BF00BFA6B1B01CFFF7A6
:10386000D2FE074601F078FFE06200BF00BF20698A
:10387000103000D101E020690069206300BF00BF63
:10388000284600F039F9BDE8F08110B5848C631C3E
:103890008384036AF0331955848C631C8384036A20
:1038A000F0331A5510BD838C5A1C8284026AF032A0
:1038B000D154704710B50A0E848C631C8384036A4C
:1038C000F0331A55C1F30742848C631C8384036A66
:1038D000F0331A55C1F30722848C631C8384036A76
:1038E000F0331A55848C631C8384036AF0331955B2
:1038F00010BD10B50A0A848C631C8384036AF033FC
:103900001A55848C631C8384036AF033195510BDE7
:1039100010B5044600BF4CB900BF11A34FF4BA6202
:1039200015A11EA0FDF7EEFD00BF10BD00BFFF21D9
:10393000A28C501CA084206AF030815406E0002143
:10394000A28C501CA084206AF0308154A08C4428A2
:10395000F5D3A08C10F0030FF1D100BFE5E7000014
:103960002E2E5C6C7749505C7372635C636F72657A
:103970005C646863702E6300646863705F6F70746A
:10398000696F6E5F747261696C65723A2064686316
:103990007020213D204E554C4C0000004173736552
:1039A0007274696F6E2022257322206661696C65CE
:1039B00064206174206C696E6520256420696E2026
:1039C00025730A002DE9F05F82461746D046D8F8E5
:1039D0002040D7F804B000BF00BF00BF00BF00BF49
:1039E00000BFE7609BF80000022802D000BF00BFC4
:1039F00077E000260CE008F12900815D0BF11C0046
:103A0000805D814202D000BF00BF6AE0701CC6B278
:103A100098F82800B042EEDCDBF8040009F04EF81C
:103A20006168884202D000BF00BF5AE0204600F023
:103A3000FBF910B100BF00BF53E000BF00BF35214C
:103A40002046FFF7F2FD8146B9F1000F02D100BF19
:103A500000BF46E009F10200FFF7D0FD0546052D45
:103A60001CD100BF00BF2078012808D14046FFF7D5
:103A70003DFE0020E0844046FFF75AFB30E020780E
:103A8000032805D02078042802D02078052827D1E3
:103A90000020E0844046FFF773FA21E0062D13D1A1
:103AA0002078032808D02078012805D02078042821
:103AB00002D02078052807D100BF00BF0020E08495
:103AC0004046FFF7A1FE0BE0022D09D12078062821
:103AD00006D100BF00BF0020E0844046FFF7B2FEE1
:103AE00000BF2046FFF776FD384609F02FFB002087
:103AF000E060BDE8F09F00002DE9F84305462C6A20
:103B000000BF00BF0121204600F082F82846FFF7E1
:103B100033FB0646F6BB012235212046FFF7B5FEF2
:103B200003212046FFF7BFFE022239212046FFF77E
:103B3000ACFE298E2046FFF7DCFE0422322120460F
:103B4000FFF7A3FE206B08F0B9FF80460146204630
:103B5000FFF7B0FE042236212046FFF796FEE06A0A
:103B600008F0ACFF804601462046FFF7A3FE042282
:103B700037212046FFF789FE01212046FFF793FEFB
:103B800003212046FFF78FFE1C212046FFF78BFE06
:103B9000062100E01CE02046FFF785FE2046FFF7E7
:103BA000B7FEA28CF03291B2E06909F085FB009576
:103BB0004323154AE169A06810F0BEF84322134977
:103BC000A0680FF04FFF2846FFF718FC00BF01E088
:103BD00000BF00BF6078401C60706078062803DA80
:103BE00061780120884000E03C204FF47A7148431E
:103BF00087B207F2F310491090FBF1F0E08400BFA8
:103C000000BF3046BDE8F8830ACB020806CB0208A5
:103C100002788A4202D00170002242707047000090
:103C200070B50546002600BF5DB900BF38A340F25D
:103C300041223DA140A0FDF765FC00BF6FF00900E7
:103C400070BD00BF2C6A00BF00BF95F8320020F0A5
:103C5000080085F83200288EB0F5107F04DA00BF26
:103C600000BF4FF0FF30EBE774B900BF00BF582032
:103C700007F03AFF044624B900BF00BF4FF0FF3001
:103C8000DEE72C6200BF0BE000BF00BFA06810B1F0
:103C9000A06810F031F8E06810B1E06809F056FA59
:103CA00058212046FCF783FA10F014F8A060A068B1
:103CB00048B900BF00BF204607F0BAFE0020044606
:103CC0002862401EBCE744222549A0680FF08AFE06
:103CD00043222349A0680FF0C5FE2A462149A06867
:103CE00010F006F800BF00BF2846FFF7F3FB0646BA
:103CF0002EB1284600F038F84FF0FF30A0E795F8D5
:103D0000320040F0080085F83200304698E70000A5
:103D10002E2E5C6C7749505C7372635C636F7265C6
:103D20005C646863702E63006E6574696620213D73
:103D3000204E554C4C000000417373657274696FDE
:103D40006E2022257322206661696C65642061748F
:103D5000206C696E6520256420696E2025730A0039
:103D600006CB0208C539000870B505462C6A00BFAD
:103D70004DB900BF15A34FF48C621AA120A0FDF726
:103D8000C1FB00BF70BD00BF95F8320020F00800F5
:103D900085F8320000BF00BFACB1A06820B1A068B8
:103DA0000FF0AAFF0020A060E06820B1E06809F0F1
:103DB000CDF90020E0602046FFF70CFC204607F01C
:103DC00037FE0020286200BFDCE700002E2E5C6C6E
:103DD0007749505C7372635C636F72655C6468639F
:103DE000702E6300646863705F73746F703A206E46
:103DF0006574696620213D204E554C4C0000000042
:103E0000417373657274696F6E2022257322206678
:103E100061696C6564206174206C696E652025643D
:103E200020696E2025730A0070B5044600BF5CB996
:103E300000BF2BA340F2C4422FA133A0FDF762FBC9
:103E400000BF6FF0090070BD00BF00BFE06858B947
:103E500000BF23A340F2C54235A12BA0FDF752FBC2
:103E600000BF6FF00800EEE700BF2046FFF7B2FB8F
:103E7000E0680089F0280ED9E0680089F0382083D6
:103E8000208B07F031FE6061606920B900BF00BF80
:103E90004FF0FF30D7E7F02007F026FE20612069C1
:103EA00040B900BF00BF606907F0C2FD002060613B
:103EB000401EC8E70023F022D4E9030109F0A8F866
:103EC000054600BF00BF606940B1228BF0236169E5
:103ED000E06809F09DF8054600BF00BF0020B2E78A
:103EE0002E2E5C6C7749505C7372635C636F7265F5
:103EF0005C646863702E63006468637020213D20F9
:103F00004E554C4C00000000417373657274696F2C
:103F10006E2022257322206661696C6564206174BD
:103F2000206C696E6520256420696E2025730A0067
:103F3000646863702D3E7020213D204E554C4C002E
:103F400070B506460C460448C56B25EA04000021FE
:103F5000FDF79AF9002070BD0080014010B50021E6
:103F60004FF08040FDF7ECF910BD10B5024600BFE0
:103F700011F8013B03F0C000C02800D110E009E0B7
:103F800010780C78A04201D0012010BD491C521CB1
:103F9000581EC3B2002BF3DC521C08780028E7D16E
:103FA00000BF0020F1E7000010B500BF00BF0EA069
:103FB000FDF7A8FA00BF00BF1148006890B90FF0E4
:103FC00089FE0F4908600846006858B100220D4973
:103FD0000B4800680FF006FD00220B4908480068F6
:103FE0000FF086FE10BD0000646E735F696E697429
:103FF0003A20696E697469616C697A696E670A0052
:104000003400002006CB020839400008014600BFFA
:1040100011F8012B02F0C000C02800D108E002E036
:10402000491C501EC2B2002AFADC08780028EFD1E1
:1040300000BF481C704700002DE9F04F87B01546BF
:104040002889B0F5007F07DD00BF00BF8DA0FDF718
:1040500059FA00BF00BF0FE128891A2807DA00BF0C
:1040600000BF8EA0FDF74EFA00BF00BF04E12A8911
:1040700000239149284608F0CBFF298988427DD149
:104080008D4E308801F075FB00F0FF08B8F1040F89
:1040900074DAC8EBC80000EB8000884901EBC0046B
:1040A000207802286AD103202070F07800F00F00F9
:1040B0006071B08801F05DFB00F0FF0AF08801F04C
:1040C00058FB00F0FF09B07810F0800F04D0607941
:1040D00010B9BAF1010F09D000BF00BF04F10C0103
:1040E00077A0FDF70FFA00BF00BFB4E072490C31B2
:1040F00004F10C00FFF739FF48B100BF00BF04F125
:104100000C0177A0FDF7FEF900BF00BFA3E06A48ED
:104110000C30FFF77BFF071D8EE03846FFF776FF78
:10412000074638680490786805903889ADF818001B
:10413000BDF8100008F0C8FC012872D1BDF81200CB
:1041400008F0C2FC01286CD1BDF8180008F0BCFCD6
:10415000042866D1059808F0B1FCA0606C49A068FD
:10416000884201D90846A060D7F80A10C4F80C119B
:1041700000BF00BF04F10C0166A000E06AE0FDF79B
:10418000C1F900BF00BF00BF00BF14F5867005D0A5
:10419000D4F80C0108F092FCC0B200E00020834685
:1041A00014F5867006D0D4F80C0108F087FCC0F333
:1041B000072000E00020039014F5867006D0D4F8A4
:1041C0000C0108F07BFCC0F3074000E000200290E7
:1041D00014F5867005D0D4F80C0108F06FFC000EC1
:1041E00000E00020CDE900B0014651A0DDE9022346
:1041F000FDF788F900BF00BF00BF00BF2DA0FDF78D
:1042000081F900BF00BFD4F8100140B104F58671F8
:1042100004F10C00D4F81031D4F8142198472AE0A6
:10422000FFE7BDF8180001F0A4FA07F10A014718EA
:10423000A9F1010000F0FF09B9F1000F3FF76DAFE0
:1042400000BF00BF04F10C013DA0FDF75BF900BF0A
:1042500000BF00E00FE0D4F8100138B1002104F1F4
:104260000C00D4F81031D4F81421984700202070A5
:10427000C4F8100100BF00BF284608F067FF07B070
:10428000BDE8F08F646E735F726563763A2070628A
:10429000756620746F6F206269670A00646E735FD1
:1042A000726563763A207062756620746F6F207352
:1042B0006D616C6C0A0000009C1B00203C17002004
:1042C000646E735F726563763A20222573223A200A
:1042D0006572726F7220696E20666C6167730A0086
:1042E000646E735F726563763A20222573223A20EA
:1042F000726573706F6E7365206E6F74206D61747C
:10430000636820746F2071756572790A000000007F
:10431000803A0900646E735F726563763A202225E5
:1043200073223A20726573706F6E7365203D2000B2
:104330002534642E2534642E2534642E25346400FF
:10434000646E735F726563763A20222573223A2089
:104350006572726F7220696E20726573706F6E7312
:10436000650A000002280ADA054A12683AB131B13A
:104370000A6822B1034A02EB80020B68136070479F
:10438000340000203900002070B506460C46044871
:10439000C56B44EA05000121FCF776FF002070BDE3
:1043A0000080014010B501218807FCF7C9FF10BD4E
:1043B0002DE9FC4706468946174600BF56B900BF9F
:1043C00052A340F2772258A15BA0FDF79BF800BFF3
:1043D000BDE8FC8700BF78892A2805D200BF00BF4E
:1043E000384608F0B3FEF3E77C68012001F0C1F91C
:1043F000E189884214D140F2046001F0BAF9618A7F
:1044000088420DD14FF4006001F0B3F9218A88424F
:1044100006D140F6060001F0ACF9A189884205D02A
:1044200000BF00BF384608F091FED1E7E069019077
:10443000D4F826000090706810B94FF0000808E02A
:1044400000987168884201D1012000E0002000F04E
:10445000FF08B8F1000F07D0012304F1160201A9EB
:1044600030460FF0EFFC06E0002304F1160201A92C
:1044700030460FF0E7FCA08A01F07BF9012802D05A
:1044800002283AD132E000BF00BFB8F1000F26D0B9
:1044900000BF00BF022001F06CF9A082E069C4F8FF
:1044A00026007068E061062512E0681EC5B204F1BE
:1044B0001600415D0A3041550A38405D605519F8D3
:1044C000051004F11600415519F80510A01D4155BD
:1044D000002DEADC39463046B269904705E0706845
:1044E00008B900BF01E000BF00BF09E000BF00BF86
:1044F00001A93046FEF7F6FC02E000BF00BF00BF96
:1045000000BF384608F022FE00BF61E72E2E5C6C2B
:104510007749505C7372635C6E657469665C657440
:10452000686172702E6300006E6574696620213DBB
:10453000204E554C4C000000417373657274696FD6
:104540006E2022257322206661696C656420617487
:10455000206C696E6520256420696E2025730A0031
:1045600070B504460E4600BF4CB900BF0FA340F221
:104570004A2215A118A0FCF7C5FF00BF70BD00BFFF
:104580007568D5F81A00A1680840D4E901121140F5
:10459000884200D0F2E700BF00BF0023AA1D05F14A
:1045A0001A0120460FF04EFC00BFE7E72E2E5C6C90
:1045B0007749505C7372635C6E657469665C6574A0
:1045C000686172702E6300006E6574696620213D1B
:1045D000204E554C4C000000417373657274696F36
:1045E0006E2022257322206661696C6564206174E7
:1045F000206C696E6520256420696E2025730A0091
:104600002DE9FC4104460E4615460E21304608F0C1
:10461000D5FD28B100BF00BF6FF00100BDE8FC81EF
:1046200000272146284602F063FA08B1254F40E0F2
:104630004FF0704008F042FA296800EA01084FF094
:10464000604008F03BFA80451DD101208DF8000044
:1046500000208DF801005E208DF80200286808F027
:104660002DFAC0F306408DF80300286808F026FAFA
:10467000000A8DF80400286808F020FAC0B28DF80E
:1046800005006F4615E02868A1680840D4E90112CA
:104690001140884207D0E06810B104F10C0502E037
:1046A0006FF00300BAE732462946204600F00CF8C6
:1046B000B4E73B4604F129023146204600F044F9B4
:1046C000ACE7000062C702082DE9F84F81460F46AB
:1046D000164609F1290A4FF0FF3000904946384646
:1046E00002F006FA78B94FF0704008F0E7F939683F
:1046F00000EA01054FF0604008F0E0F9854202D081
:104700000FB1386828B900BF00BF6FF00900BDE8DD
:10471000F88F0121384600F04BFA0446002C06DAE7
:1047200000BF00BF0EB100BF00BF2046EFE704EBA3
:1047300084004A4901EB8000807B30B9012004EB02
:104740008401464A02EB8101887304EB84004349EB
:1047500001EB8000807B012800D02EB93946484605
:1047600000F0DAF8009000BFF6B304EB84003B4998
:1047700001EB8000807B02280CD104EB840001EB6C
:10478000800000F1080352463146484600F0DCF84C
:10479000009061E004EB8400304901EB8000807BF5
:1047A000012859D14FF0000B354606E0287B01283F
:1047B00002D04FF0010B02E02D68002DF6D100BFB2
:1047C000BBF1000F11D029890022032008F020FA44
:1047D000054675B13146284608F058FB48B12846D1
:1047E00008F0B4FC002504E036E03546284608F021
:1047F00095FD75B3062007F0BFFA8046B8F1000FAB
:1048000021D00020C8F80000C8F8045004EB840050
:10481000124951F8200060B104EB84010F4A52F8AC
:10482000210000E0006801680029FBD1C0F8008089
:1048300004E004EB8400094941F8208000BF00BF78
:104840000020009004E0284608F080FC00BF00BF74
:1048500001E000BF00BF00BF009858E774160020B9
:104860002DE9FF4F81B00746884691469A46DDF80C
:1048700038B00020009000222A21032008F0C8F957
:10488000064636B900BF00BF4FF0FF3005B0BDE8A7
:10489000F08F746800BF00BF119800F06AFFA0821B
:1048A000062512E0681EC5B21AF8051004F11600BC
:1048B00041550F98415D04F12000415519F805005C
:1048C000605518F80510A01D4155002DEADCDBF8F5
:1048D0000000E06110980068C4F82600012000F094
:1048E00048FFE0814FF4006000F043FF208240F277
:1048F000046000F03EFF608240F6060000F039FFE1
:10490000A08131463846BA6990470090304608F099
:104910001DFC00260098B9E77FB504460D4600BF90
:1049200000BF01230649201D8DE82300039304F1F5
:104930002903044A19462046FFF792FF04B070BDD0
:1049400068C7020862C702082DE9F04706460F460D
:10495000904699467D68062408E0601EC4B219F8A6
:104960000400285518F80410A81D0155002CF4DC8B
:104970004FF4006000F0FDFEA88100BF00BF394683
:104980003046B2699047BDE8F08700002DE9F0415C
:1049900004460D46666800BF00BFB08900F0E9FE1E
:1049A000B0F5006F04D0A0F5006006381BD113E00D
:1049B00021462846FFF7D4FD6FF00D01204608F090
:1049C000FDFB20B1204608F0C1FB002403E029468E
:1049D000204602F0B9F913E0224605F129012846E4
:1049E000FFF7E6FC0CE0B08900F0C3FE0746014685
:1049F00005A0FCF787FD204608F0A8FB002400BFB7
:104A000000BF0020BDE8F081747970653D307825E5
:104A10007829210A0000000070B50446082007F03C
:104A200063F8054625B900BF00BF4FF0FF3070BDE9
:104A3000E561732084F83300742134200155064861
:104A400060610648A06104F129002860204606F054
:104A50005DFC0020EBE700000146000825B40008DB
:104A600070B504460026204606F0B0FC06460EB996
:104A7000002070BD214630462269904705463DB171
:104A800000BF00BF304608F061FB00262846F0E773
:104A90002846EEE70146012209B9002070470804C4
:104AA000000C01D10914103211F0FF0F01D10912CD
:104AB000083211F00F0F01D10911121D11F0030F6F
:104AC00001D18910921C11F0010F01D14910521C23
:104AD0001046E3E72DE9F0410446266C606C08B10E
:104AE000B06800E03068054694F84800012801D01D
:104AF000BDE8F08106B9FBE7686A78B1286A68B951
:104B0000686A006950B9204609F07FFE30B1E06C58
:104B100020B921A0E16CFCF7F5FCE9E723484069E6
:104B2000A86022488169E960C1692961016A6961F7
:104B3000406820F0FF0794F8200007431B484760B7
:104B400040F2FF50FCF774FB2046FEF75BF9686A01
:104B500020B1286A10B1D5E908010861686A50B12E
:104B6000686AC06938B1606C28B901206064206847
:104B70000AF08CF8BCE7706800B900E000BF0020C4
:104B800084F848002064204609F0ADFD31462068D5
:104B900007F01CFC00BFABE7444D41204D69737327
:104BA000696E672028256429210A000000800140E1
:104BB0002DE9FC5F05460F464FF00A08C1460A265C
:104BC0000024A34600200190B2460090CDB1764863
:104BD000007800EB8000754901EB8000807B0228A3
:104BE0000FD128687049097801EB81016F4A02EB07
:104BF00081014968884204D16B48007840B2BDE821
:104C0000FC9F002479E00A2E0AD104EB8400674956
:104C100001EB8000807B18B900BF00BF66B26AE07C
:104C200004EB8400614901EB8000807B012838D1CE
:104C300075B1286804EB84015C4A02EB8101496884
:104C4000884205D100BF00BF5748047060B2D6E764
:104C500004EB8400554951F8200088B104EB84002E
:104C600001EB8000C17B0098814244DB4FFA84FA5B
:104C700004EB84004D4901EB8000C07B00903AE0DA
:104C800004EB8400494901EB8000C07B584532DBCE
:104C90004FFA84F804EB840001EB800090F80FB029
:104CA00029E004EB8400414901EB8000807B02286D
:104CB00021D175B1286804EB84013C4A02EB8101E3
:104CC0004968884205D100BF00BF3748047060B210
:104CD00095E704EB8400354901EB8000C17B019826
:104CE000814208DB4FFA84F904EB84002F4901EB81
:104CF0008000C07B0190601CC4B20A2C83DB0A2EAA
:104D000002D117F0010F02D017F0020F04D000BF3C
:104D100000BF4FF0FF3072E70A2E02DAF4B200BF94
:104D200025E0B9F10A0F03DA09F0FF0400BF1EE025
:104D3000B8F10A0F03DA08F0FF0400BF17E0BAF178
:104D40000A0F11DA0AF0FF0400BF00BF04EB840170
:104D5000164A52F8210000F06BF8002004EB8401A1
:104D6000124A42F8210002E04FF0FF3047E70020EE
:104D700004EB84010D4A02EB8101887345B105B94A
:104D800000E0286804EB8401084A02EB81014860D6
:104D9000002004EB8401054A02EB8101C87302483C
:104DA000047060B22BE700002C0000207416002075
:104DB0000146202209B900207047080C000401D1E7
:104DC0000904103A11F07F4F01D10902083A11F09D
:104DD000704F01D10901121F11F0404F01D189001C
:104DE000921E11F0004F01D14900521E1046E3E718
:104DF00070B504460D4600BF40210C48FCF72AFB65
:104E00000028F9D00A2C03D129460D20FFF7F0FF26
:104E1000E1B20648FCF76CFB00BF40210348FCF7F9
:104E200019FB0028F9D0204670BD00000038014071
:104E300070B5044608E025462468686808F086F9DD
:104E40002946062006F058FF002CF4D170BD000062
:104E50002DE9FC5F04460D46002694F855000190AC
:104E6000B046B246B346B146002000906088288024
:104E70002079A8705623224638A14FF4806004F0B0
:104E8000E5FB002745E0009870B901200090601D07
:104E900010F8170082468346601D00EB470090F82B
:104EA00001904FF0010832E0601D10F817100BF16F
:104EB000010081420ED1601D00EB4700407848455B
:104EC00008D10BF1010000F0FF0B08F1010000F028
:104ED000FF081BE006EB4601281D00F801A006EBC9
:104EE0004601084480F8018006EB4601281D08446D
:104EF00080F80290701CC6B2601D10F81700824640
:104F00008346601D00EB470090F8019000BF781CBD
:104F1000C7B201988742B6DB009888B106EB46011C
:104F2000281D00F801A006EB4601084480F8018026
:104F300006EB4601281D084480F80290701CC6B29A
:104F4000EE7006EB4600031D2A4609A14FF480606F
:104F500004F07CFB0020BDE8FC9F000070617273D0
:104F600065645F726567696F6E5F6368616E00009C
:104F7000646F6D61696E696E666F00002DE9FF47B1
:104F800080460D4616464FF0000930880E2801D2A3
:104F9000308800E00E201FFA80FA002414E0002779
:104FA0000CE0E85D1F49095D884206D1EA5D48468C
:104FB000411C1FFA81F90DF800207F1C574502DAC9
:104FC000E85D0028EDD1641C0E2C03D21548005D6D
:104FD0000028E4D198F8171313A0FCF793FAB8F857
:104FE000D40180B9002407E01DF8040098F81713D5
:104FF000884200D108E0641C4C45F5DB4FF0FF30DF
:1050000004B0BDE8F08700BF31882846FBF7CFF831
:10501000A6F800904A4669462846FBF7A1F800200A
:10502000EEE70000600400205458206461746120A1
:1050300072617465203078253032780A00000000F3
:105040002DE9F04105460E4634464FF0000827880A
:1050500048F24E01781A8F4251D016DC48F21F01F7
:10506000A7EB01008F4232D008DCA7F500401938C9
:105070001AD0012819D0022872D117E01D281CD09F
:105080001E281BD02A286BD120E0392847D006DC07
:105090000D2822D024282AD0322861D138E0472890
:1050A0004CD062285CD154E000BF00BF2246394694
:1050B000284605F000FB804657E000BFE96F062256
:1050C000086904F10801FBF74BF84EE04DE021467A
:1050D000284605F0C1FA804647E026A0FCF712FA00
:1050E00002E05B2F00D000E0FBE700BF3DE0E96F8E
:1050F0000F22086904F10801FBF732F835E0E96F87
:105100004FF48272086904F10801FBF729F82CE0DA
:10511000E86F0069A1680160E168416025E0E86F1F
:10512000006950B1E86F0169D4F80E200A60D4F824
:1051300012204A60D4F81600886016E0E86F006913
:1051400030B1E96F3622086904F10801FBF708F86D
:105150000BE02146284605F071FA804605E0FFE79E
:1051600021880CA0FCF7CEF900BF00BF4046BDE887
:10517000F08100006661696C656420434D445F38CE
:1051800030325F3131445F444F4D41494E5F494EAB
:10519000464F0A00434D445F524553503A20756EC6
:1051A0006B6E6F776E20636D6420726573706F6EC7
:1051B0007365203078253034780A000070B50646D3
:1051C0000C46032217A13046FBF713F860B90325FC
:1051D00005E02078202802D1302004F8010B2800B7
:1051E000A5F10105F5D11BE003220FA13046FBF725
:1051F00000F8A8B902250FE02078602806DD2078A5
:10520000672803DA20782038207004E020782028EE
:1052100001D130202070641C2800A5F10105EBD1DC
:1052200070BD000025336400253278002DE9F0417F
:1052300088B007460C4615462E89701C2881A88820
:10524000B0F5007F01DAA88801E04FF400708046D5
:10525000A5F806804FF4007000FB06714246204618
:10526000FAF77EFFF6BBFE480078312823D100BF55
:10527000FCA2FFA16846FCF769F90099C4F8BF11C8
:105280000199C4F8C31104F2BF11F9A0FFF796FF0A
:1052900000BF00BFF7A2F6A16846FCF757F90099D6
:1052A000C4F8F0110199C4F8F41104F5F871F0A0F4
:1052B000FFF784FF4AE2EA480078302824D100BF93
:1052C000ECA2EBA16846FCF741F90099C4F8BF11C4
:1052D0000199C4F8C31104F2BF11E5A0FFF76EFFF6
:1052E00000BF00E011E000BFDEA2E1A16846FCF7CC
:1052F0002DF90099C4F8F0110199C4F8F41104F5DE
:10530000F871DBA0FFF75AFF20E2012E41D104F132
:105310005C004021FAF74BFF04F15C00D84AD9A1A8
:10532000FCF714F904F1E7003D21FAF740FF04F11E
:10533000E700D64AD3A1FCF709F900BFD4480278A8
:10534000D4A16846FCF702F94FF4D470BDF8001000
:10535000A4F8A6119DF80210015504F5D371CDA053
:10536000FFF72CFF00BF00BFC9484278C9A16846BB
:10537000FCF7ECF840F2F310BDF80010A4F8F111BE
:105380009DF80210015504F2F111C2A0FFF716FFBB
:10539000DCE1022E7ED100BFBD488278BDA1684607
:1053A000FCF7D4F83D20BDF80010A4F83B109DF8A0
:1053B0000210015504F13B01B6A0FFF7FFFE00BF4C
:1053C00000BFB348C278B3A16846FCF7BFF8872096
:1053D000BDF80010A4F885109DF80210015504F1E5
:1053E0008501ACA0FFF7EAFE00BF00BFAA48027823
:1053F000A8A16846FCF7AAF8F520BDF80010A4F8AB
:10540000F3109DF80210015504F1F301A1A0FFF77C
:10541000D5FE00BF00BFA04842789EA16846FCF7B9
:1054200095F84FF4A070BDF80010A4F83E119DF857
:105430000210015504F59F7196A0FFF7BFFE00BF53
:1054400000BF9548827893A16846FCF77FF840F248
:105450008B10BDF80010A4F889119DF802100155B9
:1054600004F289118BA0FFF7A9FE00BF00BF8A4894
:10547000C27888A16846FCF769F84FF4EB70BDF874
:105480000010A4F8D4119DF80210015504F5EA713A
:1054900080A000E002E0FFF791FE57E1032E7ED1ED
:1054A00000BF7E4802787BA16846FCF74FF83920A0
:1054B000BDF80010A4F837109DF80210015504F152
:1054C000370174A0FFF77AFE00BF00BF734842782F
:1054D00070A16846FCF73AF88220BDF80010A4F8E5
:1054E00080109DF80210015504F1800169A0FFF7BA
:1054F00065FE00BF00BF6948827866A16846FCF778
:1055000025F8CB20BDF80010A4F8C9109DF80210B2
:10551000015504F1C9015FA0FFF750FE00BF00BFB5
:105520005E48C2785BA16846FCF710F84FF48A70B9
:10553000BDF80010A4F812119DF80210015504F5F1
:10554000897154A0FFF73AFE00BF00BF54480278AB
:1055500050A16846FBF7FAFF4FF4BC70BDF800108D
:10556000A4F876119DF80210015504F5BB7149A00D
:10557000FFF724FE00BF00BF4948427845A16846B6
:10558000FBF7E4FF4FF4E170BDF80010A4F8C01180
:105590009DF80210015504F5E0713EA000E002E024
:1055A000FFF70CFED2E0042E59D13E493E48006878
:1055B00000F58070D0F80A200A60C089888000BF9A
:1055C0003748827833A16846FBF7C0FFBDF800106A
:1055D00061819DF80210217304F10A012DA0FFF7EB
:1055E000EDFD00BF00BF2E48C2782AA16846FBF738
:1055F000ADFF5620BDF80010A4F854109DF802101D
:10560000015504F1540123A0FFF7D8FD00BF00BFEE
:105610002448027825A16846FBF798FF04F1C400EE
:10562000BDF80010A4F8C410014620A0FFF7C6FD85
:1056300000BF00BF1B4842781CA16846FBF786FFED
:1056400004F58770BDF80010A4F80E11014617A0EC
:10565000FFF7B4FD00BF00BF1248827828E060E089
:10566000D00000202020202020202020000000004A
:105670002573000073656C65637465640000000049
:10568000D10000202225732200000000F10000203C
:1056900011010020253364001501002019010020AC
:1056A0001D010020210100201C000020253278006F
:1056B000AFF208016846FBF749FF04F5AC70BDF88E
:1056C0000010A4F858110146AFF22000FFF776FD54
:1056D00000BF00BF1F48C278AFF230016846FBF739
:1056E00035FF04F5D170BDF80010A4F8A2110146F1
:1056F000AFF24800FFF762FD00BF00BF1548027916
:10570000AFF258016846FBF721FF04F5F670BDF8CB
:105710000010A4F8EC110146AFF27000FFF74EFD47
:1057200014E0052E12D100BF0A484279AFF284017D
:105730006846FBF70BFF04F13600BDF80010E18668
:105740000146AFF29800FFF739FD00BF08B0BDE891
:10575000F0810000210100200146080601F47F428B
:1057600040EA022001F47F0240EA122040EA116080
:1057700070470146C8B20A0A42EA0020704700009A
:105780002DE9F04106460D4617460C2006F0ACF90F
:1057900004461CB94FF0FF30BDE8F08100202060C6
:1057A000A080A072E0722146284609F0F1FC05496C
:1057B00028460DF011FB044928460AF03DFD002063
:1057C000EAE70000CD570008C32E00082DE9F04796
:1057D0000746884615461E463C46F6BBEDB329896A
:1057E00040460DF011FB44A06968FBF78BFE206872
:1057F000A0BBD5F8049005224CA14846FAF7F9FC65
:1058000068BB4C48FAF7DFFC1FFA80FA00235246C7
:10581000484940460DF038FF06464748206040F6AC
:105820007F50A0804FF40070E080002020810B2288
:1058300042A14846FAF7DDFC30B94FF40071484602
:105840000EF024FC0120E0720C223FA14846FAF73A
:10585000D0FC08B90020E07202E044E040E037E00C
:105860000D223DA14846FAF7C4FC08B90020E072B9
:105870000E223DA14846FAF7BCFC00B900BF0F223A
:105880003DA14846FAF7B5FC00B900BF0F223DA183
:105890004846FAF7AEFC08B9FBF706FB11223DA11A
:1058A0004846FAF7A6FC10B93FA0FBF72BFE2246AC
:1058B00041492148FFF7BAFC284607F047FC3F4919
:1058C00040460DF0F6FB2146404608F08BFC0AE00E
:1058D000284607F03BFC21464046FDF7B7FA02E0B8
:1058E000284607F033FC26B91DB921464046FDF78E
:1058F000ADFA0020BDE8F0872323232323232323AD
:105900002323232323232323232323232323232367
:105910002323232323232323232323232323232357
:10592000230D0A202573200D0A000000474554204E
:105930002F000000ECDA02080ECB02084745542085
:105940002F526F7574653F00474554202F4A5F4FB3
:1059500050454E3F00000000474554202F4A5F430A
:105960004C4F53453F000000474554202F4C4544C1
:105970005F4F50454E3F0000474554202F434C4F4A
:1059800053453F00474554202F52455345545F53DC
:1059900059533F00474554202F544553545F4255B7
:1059A00054544F4E3F0000005757572E4353475310
:1059B0004D2E434F4D0A0000D45D0020C159000810
:1059C0002DE9F04105460E4617462C460020A072F0
:1059D000A088002809DD224609490A48FFF726FC6D
:1059E0002146304608F0FEFB07E021463046FDF731
:1059F0002DFAE07A08B1FBF757FA0020BDE8F081F4
:105A0000D45D00200ECB020810B5002009490860C3
:105A10000BF074FB044650220749204609F0BAFBFC
:105A2000FF2120460BF0BAFA04460449204609F04B
:105A300023FB10BDC400002006CB020881570008DC
:105A400070B505460C4622460321284600F0DDF8D5
:105A500070BD2DE9F04F85B0054689466C682088F9
:105A600007F032F8C0F303204FEA8008C8F10001C4
:105A7000284607F0A3FB10B92889042802D200BFEA
:105A800000BFB9E0686890F800A0686840780490AA
:105A9000BAF1080F79D101274FF0704007F00EF8E6
:105AA000216900EA010B4FF0604007F007F88345D9
:105AB00000D10027494604F1100001F019F800B1A7
:105AC00000273FB900BF00BF284607F03FFB05B0E5
:105AD000BDE8F08F00BF00BF2889082802D200BFB0
